:020000020000FC
:1000000010C0189518951895189518951895189565
:100010001895189518951895189518951895189578
:1000200018951FE51DBF12E01EBF479A10E815BFC7
:10003000E6E0F0EA0027222736B3307910E419BF52
:1000400050E050E010E71BBD1FE71ABD11E010BFE4
:1000500010E01FBD1CE01EBD00E878942DD0FECF3F
:1000600046B340794317D9F03030C9F4403151F0EC
:10007000403821F0403251F012C01895539560E09D
:10008000523044F4639550E064303CF450E060E05A
:100090002FE005C050E0239502C060E02A9516B31A
:1000A0001072112309F42227F22E122F1695F12631
:1000B0000F2D0083342FD2CF89E090E003D0019739
:1000C000E9F70895000075EC00007A95E9F70895C6
:00000001FF
