:020000020000FC
:1000000010C0189518951895189518951895189565
:100010001895189518951895189518951895189578
:1000200018950FE50DBF02E00EBF479A00E805BF27
:10003000A0E0B0EAC0E0D0EBE4E0F0EA1FEF50E06F
:1000400061E140E131E15C93188303E000830ED06D
:10005000161B4A9509F0F7CF70E15C93188303E013
:10006000008304D0130F7A9549F3F7CF80E096E32D
:1000700003D00197E9F70895000025EC00002A95C8
:04008000E9F70895FF
:00000001FF
