:020000020000FC
:1000000010C0189518951895189518951895189565
:100010001895189518951895189518951895189578
:1000200018950FE50DBF02E00EBF479A00E805BF27
:10003000E6E0F0EA08E100832BD004E2008328D058
:1000400002E4008325D001E8008322D002E400838B
:100050001FD004E200831CD008E1008319D00FEF09
:10006000008316D008E1008313D004E2008310D08F
:1000700002E400830DD001E800830AD002E400838B
:1000800007D004E2008304D008E1008301D0D2CF7E
:1000900080E094E503D00197E9F70895000015EC9E
:0800A00000001A95E9F708952C
:00000001FF
